{
  "contractName": "AttendanceData",
  "abi": [
    {
      "constant": true,
      "inputs": [],
      "name": "currentEventValue",
      "outputs": [
        {
          "name": "",
          "type": "uint256"
        }
      ],
      "payable": false,
      "stateMutability": "view",
      "type": "function"
    },
    {
      "constant": true,
      "inputs": [
        {
          "name": "",
          "type": "address"
        }
      ],
      "name": "attendees",
      "outputs": [
        {
          "name": "name",
          "type": "string"
        },
        {
          "name": "amountDonated",
          "type": "uint256"
        },
        {
          "name": "lastAttendedEvent",
          "type": "uint256"
        },
        {
          "name": "totalEventsAttended",
          "type": "uint256"
        },
        {
          "name": "listPointer",
          "type": "uint256"
        }
      ],
      "payable": false,
      "stateMutability": "view",
      "type": "function"
    },
    {
      "constant": true,
      "inputs": [
        {
          "name": "",
          "type": "uint256"
        }
      ],
      "name": "eventResults",
      "outputs": [
        {
          "name": "",
          "type": "address"
        }
      ],
      "payable": false,
      "stateMutability": "view",
      "type": "function"
    },
    {
      "constant": true,
      "inputs": [
        {
          "name": "",
          "type": "uint256"
        }
      ],
      "name": "attendeeList",
      "outputs": [
        {
          "name": "",
          "type": "address"
        }
      ],
      "payable": false,
      "stateMutability": "view",
      "type": "function"
    },
    {
      "constant": true,
      "inputs": [],
      "name": "unclaimedValue",
      "outputs": [
        {
          "name": "",
          "type": "uint256"
        }
      ],
      "payable": false,
      "stateMutability": "view",
      "type": "function"
    },
    {
      "constant": true,
      "inputs": [
        {
          "name": "",
          "type": "address"
        }
      ],
      "name": "winningsBalance",
      "outputs": [
        {
          "name": "",
          "type": "uint256"
        }
      ],
      "payable": false,
      "stateMutability": "view",
      "type": "function"
    },
    {
      "inputs": [],
      "payable": false,
      "stateMutability": "nonpayable",
      "type": "constructor"
    },
    {
      "constant": true,
      "inputs": [
        {
          "name": "attendeeAddress",
          "type": "address"
        }
      ],
      "name": "isAttendee",
      "outputs": [
        {
          "name": "isAttendee",
          "type": "bool"
        }
      ],
      "payable": false,
      "stateMutability": "view",
      "type": "function"
    },
    {
      "constant": true,
      "inputs": [
        {
          "name": "attendeeAddress",
          "type": "address"
        }
      ],
      "name": "hasPastAttendeeRecord",
      "outputs": [
        {
          "name": "isAttendee",
          "type": "bool"
        }
      ],
      "payable": false,
      "stateMutability": "view",
      "type": "function"
    },
    {
      "constant": true,
      "inputs": [
        {
          "name": "attendeeAddress",
          "type": "address"
        },
        {
          "name": "validatorAddress",
          "type": "address"
        }
      ],
      "name": "hasAlreadyValidated",
      "outputs": [
        {
          "name": "hasAlreadyValidated",
          "type": "bool"
        }
      ],
      "payable": false,
      "stateMutability": "view",
      "type": "function"
    },
    {
      "constant": true,
      "inputs": [],
      "name": "getAttendeeCount",
      "outputs": [
        {
          "name": "attendeeCount",
          "type": "uint256"
        }
      ],
      "payable": false,
      "stateMutability": "view",
      "type": "function"
    },
    {
      "constant": false,
      "inputs": [
        {
          "name": "name",
          "type": "string"
        }
      ],
      "name": "newAttendee",
      "outputs": [
        {
          "name": "success",
          "type": "bool"
        }
      ],
      "payable": true,
      "stateMutability": "payable",
      "type": "function"
    },
    {
      "constant": false,
      "inputs": [
        {
          "name": "attendeeAddress",
          "type": "address"
        },
        {
          "name": "name",
          "type": "string"
        }
      ],
      "name": "updateAttendeeName",
      "outputs": [
        {
          "name": "success",
          "type": "bool"
        }
      ],
      "payable": false,
      "stateMutability": "nonpayable",
      "type": "function"
    },
    {
      "constant": false,
      "inputs": [
        {
          "name": "attendeeAddress",
          "type": "address"
        }
      ],
      "name": "validateAttendee",
      "outputs": [
        {
          "name": "success",
          "type": "bool"
        }
      ],
      "payable": false,
      "stateMutability": "nonpayable",
      "type": "function"
    },
    {
      "constant": false,
      "inputs": [
        {
          "name": "attendeeAddress",
          "type": "address"
        }
      ],
      "name": "deleteAttendee",
      "outputs": [
        {
          "name": "success",
          "type": "bool"
        }
      ],
      "payable": false,
      "stateMutability": "nonpayable",
      "type": "function"
    },
    {
      "constant": false,
      "inputs": [],
      "name": "payout",
      "outputs": [
        {
          "name": "success",
          "type": "bool"
        }
      ],
      "payable": false,
      "stateMutability": "nonpayable",
      "type": "function"
    },
    {
      "constant": false,
      "inputs": [],
      "name": "collectWinnings",
      "outputs": [
        {
          "name": "success",
          "type": "bool"
        }
      ],
      "payable": false,
      "stateMutability": "nonpayable",
      "type": "function"
    }
  ],
  "bytecode": "0x6060604052341561000f57600080fd5b6000600581905550600060068190555033600760006101000a81548173ffffffffffffffffffffffffffffffffffffffff021916908373ffffffffffffffffffffffffffffffffffffffff16021790555061160b8061006f6000396000f3006060604052600436106100e6576000357c0100000000000000000000000000000000000000000000000000000000900463ffffffff1680630e907c27146100eb57806313816f341461015557806329f9f95f146101e95780632a104f5e146102595780633574267a146102aa578063375e5936146102fb578063396dc854146103245780635979c6c51461040f578063634b50431461047257806363bd1d4a1461049f5780636cad2590146104cc5780639a279a631461051d578063abafe48514610580578063b5b192de146105a9578063b631f983146105d2578063e93fc4ab1461061f575b600080fd5b61013b600480803590602001908201803590602001908080601f01602080910402602001604051908101604052809392919081815260200183838082843782019150505050505091905050610670565b604051808215151515815260200191505060405180910390f35b341561016057600080fd5b6101cf600480803573ffffffffffffffffffffffffffffffffffffffff1690602001909190803590602001908201803590602001908080601f01602080910402602001604051908101604052809392919081815260200183838082843782019150505050505091905050610a13565b604051808215151515815260200191505060405180910390f35b34156101f457600080fd5b61023f600480803573ffffffffffffffffffffffffffffffffffffffff1690602001909190803573ffffffffffffffffffffffffffffffffffffffff16906020019091905050610a8a565b604051808215151515815260200191505060405180910390f35b341561026457600080fd5b610290600480803573ffffffffffffffffffffffffffffffffffffffff16906020019091905050610b99565b604051808215151515815260200191505060405180910390f35b34156102b557600080fd5b6102e1600480803573ffffffffffffffffffffffffffffffffffffffff16906020019091905050610de7565b604051808215151515815260200191505060405180910390f35b341561030657600080fd5b61030e610e86565b6040518082815260200191505060405180910390f35b341561032f57600080fd5b61035b600480803573ffffffffffffffffffffffffffffffffffffffff16906020019091905050610e8c565b60405180806020018681526020018581526020018481526020018381526020018281038252878181546001816001161561010002031660029004815260200191508054600181600116156101000203166002900480156103fc5780601f106103d1576101008083540402835291602001916103fc565b820191906000526020600020905b8154815290600101906020018083116103df57829003601f168201915b5050965050505050505060405180910390f35b341561041a57600080fd5b6104306004808035906020019091905050610ec1565b604051808273ffffffffffffffffffffffffffffffffffffffff1673ffffffffffffffffffffffffffffffffffffffff16815260200191505060405180910390f35b341561047d57600080fd5b610485610f00565b604051808215151515815260200191505060405180910390f35b34156104aa57600080fd5b6104b2610fd5565b604051808215151515815260200191505060405180910390f35b34156104d757600080fd5b610503600480803573ffffffffffffffffffffffffffffffffffffffff1690602001909190505061105e565b604051808215151515815260200191505060405180910390f35b341561052857600080fd5b61053e6004808035906020019091905050611178565b604051808273ffffffffffffffffffffffffffffffffffffffff1673ffffffffffffffffffffffffffffffffffffffff16815260200191505060405180910390f35b341561058b57600080fd5b6105936111b7565b6040518082815260200191505060405180910390f35b34156105b457600080fd5b6105bc6111c4565b6040518082815260200191505060405180910390f35b34156105dd57600080fd5b610609600480803573ffffffffffffffffffffffffffffffffffffffff169060200190919050506111ca565b6040518082815260200191505060405180910390f35b341561062a57600080fd5b610656600480803573ffffffffffffffffffffffffffffffffffffffff169060200190919050506111e2565b604051808215151515815260200191505060405180910390f35b6000806000339150349050600015156106888361105e565b151514151561069657600080fd5b6000811115156106a557600080fd5b6106ae82610de7565b1561080e576106be828583611346565b506001600280548060010182816106d591906114e2565b9160005260206000209001600085909190916101000a81548173ffffffffffffffffffffffffffffffffffffffff021916908373ffffffffffffffffffffffffffffffffffffffff16021790555003600160008473ffffffffffffffffffffffffffffffffffffffff1673ffffffffffffffffffffffffffffffffffffffff16815260200190815260200160002060060181905550600054600160008473ffffffffffffffffffffffffffffffffffffffff1673ffffffffffffffffffffffffffffffffffffffff16815260200190815260200160002060020181905550600160008373ffffffffffffffffffffffffffffffffffffffff1673ffffffffffffffffffffffffffffffffffffffff1681526020019081526020016000206003016000815480929190600101919050555060019250610a0c565b83600160008473ffffffffffffffffffffffffffffffffffffffff1673ffffffffffffffffffffffffffffffffffffffff168152602001908152602001600020600001908051906020019061086492919061150e565b50600054600160008473ffffffffffffffffffffffffffffffffffffffff1673ffffffffffffffffffffffffffffffffffffffff1681526020019081526020016000206002018190555080600160008473ffffffffffffffffffffffffffffffffffffffff1673ffffffffffffffffffffffffffffffffffffffff1681526020019081526020016000206001018190555060016002805480600101828161090b91906114e2565b9160005260206000209001600085909190916101000a81548173ffffffffffffffffffffffffffffffffffffffff021916908373ffffffffffffffffffffffffffffffffffffffff16021790555003600160008473ffffffffffffffffffffffffffffffffffffffff1673ffffffffffffffffffffffffffffffffffffffff1681526020019081526020016000206006018190555060018060008473ffffffffffffffffffffffffffffffffffffffff1673ffffffffffffffffffffffffffffffffffffffff168152602001908152602001600020600301819055508060066000828254019250508190555080600560008282540192505081905550600192505b5050919050565b6000610a1e8361105e565b1515610a2957600080fd5b81600160008573ffffffffffffffffffffffffffffffffffffffff1673ffffffffffffffffffffffffffffffffffffffff1681526020019081526020016000206000019080519060200190610a7f92919061150e565b506001905092915050565b600080600160008573ffffffffffffffffffffffffffffffffffffffff1673ffffffffffffffffffffffffffffffffffffffff168152602001908152602001600020600501805490501415610ae25760009050610b93565b60001515610aef8461105e565b15151415610b005760009050610b93565b600160008473ffffffffffffffffffffffffffffffffffffffff1673ffffffffffffffffffffffffffffffffffffffff16815260200190815260200160002060040160008373ffffffffffffffffffffffffffffffffffffffff1673ffffffffffffffffffffffffffffffffffffffff16815260200190815260200160002060000160009054906101000a900460ff1690505b92915050565b60003373ffffffffffffffffffffffffffffffffffffffff168273ffffffffffffffffffffffffffffffffffffffff1614151515610bd657600080fd5b610bdf8261105e565b1515610bea57600080fd5b610bf33361105e565b1515610bfe57600080fd5b60001515610c0c8333610a8a565b1515141515610c1a57600080fd5b60018060008473ffffffffffffffffffffffffffffffffffffffff1673ffffffffffffffffffffffffffffffffffffffff16815260200190815260200160002060040160003373ffffffffffffffffffffffffffffffffffffffff1673ffffffffffffffffffffffffffffffffffffffff16815260200190815260200160002060000160006101000a81548160ff02191690831515021790555060018060008473ffffffffffffffffffffffffffffffffffffffff1673ffffffffffffffffffffffffffffffffffffffff1681526020019081526020016000206005018054806001018281610d0991906114e2565b9160005260206000209001600033909190916101000a81548173ffffffffffffffffffffffffffffffffffffffff021916908373ffffffffffffffffffffffffffffffffffffffff16021790555003600160008473ffffffffffffffffffffffffffffffffffffffff1673ffffffffffffffffffffffffffffffffffffffff16815260200190815260200160002060040160003373ffffffffffffffffffffffffffffffffffffffff1673ffffffffffffffffffffffffffffffffffffffff1681526020019081526020016000206001018190555060019050919050565b60008054600160008473ffffffffffffffffffffffffffffffffffffffff1673ffffffffffffffffffffffffffffffffffffffff1681526020019081526020016000206002015414158015610e7f57506000600160008473ffffffffffffffffffffffffffffffffffffffff1673ffffffffffffffffffffffffffffffffffffffff1681526020019081526020016000206002015410155b9050919050565b60065481565b600160205280600052604060002060009150905080600001908060010154908060020154908060030154908060060154905085565b600481815481101515610ed057fe5b90600052602060002090016000915054906101000a900473ffffffffffffffffffffffffffffffffffffffff1681565b600080600360003373ffffffffffffffffffffffffffffffffffffffff1673ffffffffffffffffffffffffffffffffffffffff16815260200190815260200160002054111515610f4f57600080fd5b3373ffffffffffffffffffffffffffffffffffffffff166108fc600360003373ffffffffffffffffffffffffffffffffffffffff1673ffffffffffffffffffffffffffffffffffffffff168152602001908152602001600020549081150290604051600060405180830381858888f193505050501515610fce57600080fd5b6001905090565b6000806000600280549050111515610fec57600080fd5b610ff461146e565b9050600654600360008373ffffffffffffffffffffffffffffffffffffffff1673ffffffffffffffffffffffffffffffffffffffff1681526020019081526020016000206000828254019250508190555060006006819055506110556114b1565b50600191505090565b60008060028054905014156110765760009050611173565b8173ffffffffffffffffffffffffffffffffffffffff166002600160008573ffffffffffffffffffffffffffffffffffffffff1673ffffffffffffffffffffffffffffffffffffffff168152602001908152602001600020600601548154811015156110de57fe5b906000526020600020900160009054906101000a900473ffffffffffffffffffffffffffffffffffffffff1673ffffffffffffffffffffffffffffffffffffffff161480156111705750600054600160008473ffffffffffffffffffffffffffffffffffffffff1673ffffffffffffffffffffffffffffffffffffffff16815260200190815260200160002060020154145b90505b919050565b60028181548110151561118757fe5b90600052602060002090016000915054906101000a900473ffffffffffffffffffffffffffffffffffffffff1681565b6000600280549050905090565b60055481565b60036020528060005260406000206000915090505481565b60008060006111f08461105e565b15156111fb57600080fd5b600160008573ffffffffffffffffffffffffffffffffffffffff1673ffffffffffffffffffffffffffffffffffffffff168152602001908152602001600020600601549150600260016002805490500381548110151561125757fe5b906000526020600020900160009054906101000a900473ffffffffffffffffffffffffffffffffffffffff1690508060028381548110151561129557fe5b906000526020600020900160006101000a81548173ffffffffffffffffffffffffffffffffffffffff021916908373ffffffffffffffffffffffffffffffffffffffff16021790555081600160008373ffffffffffffffffffffffffffffffffffffffff1673ffffffffffffffffffffffffffffffffffffffff16815260200190815260200160002060060181905550600280548091906001900361133a919061158e565b50600192505050919050565b60006113518461105e565b151561135c57600080fd5b82600160008673ffffffffffffffffffffffffffffffffffffffff1673ffffffffffffffffffffffffffffffffffffffff16815260200190815260200160002060000190805190602001906113b292919061150e565b50600054600160008673ffffffffffffffffffffffffffffffffffffffff1673ffffffffffffffffffffffffffffffffffffffff1681526020019081526020016000206002018190555081600160008673ffffffffffffffffffffffffffffffffffffffff1673ffffffffffffffffffffffffffffffffffffffff168152602001908152602001600020600101819055508160066000828254019250508190555081600560008282540192505081905550600190509392505050565b60006002600081548110151561148057fe5b906000526020600020900160009054906101000a900473ffffffffffffffffffffffffffffffffffffffff16905090565b6000806002816114c1919061158e565b50600060068190555060008081548092919060010191905055506001905090565b8154818355818115116115095781836000526020600020918201910161150891906115ba565b5b505050565b828054600181600116156101000203166002900490600052602060002090601f016020900481019282601f1061154f57805160ff191683800117855561157d565b8280016001018555821561157d579182015b8281111561157c578251825591602001919060010190611561565b5b50905061158a91906115ba565b5090565b8154818355818115116115b5578183600052602060002091820191016115b491906115ba565b5b505050565b6115dc91905b808211156115d85760008160009055506001016115c0565b5090565b905600a165627a7a7230582063fcf04509f5572fdc5c6a97cda2c4e394cfc8099cae427460f2f8637065c3b00029",
  "source": "pragma solidity ^0.4.11;\n\ncontract AttendanceData {\n\n  struct Attendee {\n    string name;\n    uint amountDonated;\n    uint lastAttendedEvent;\n    uint totalEventsAttended;\n    mapping(address => Validator) validators;\n    address[] validatorList;\n    uint256 listPointer;\n  }\n\n  struct Validator {\n    bool hasAlreadyValidated;\n    uint256 listPointer;\n    uint eventId;\n  }\n\n  uint eventId; //start at 0, iterate up for each event\n  mapping(address => Attendee) public attendees;\n  address[] public attendeeList;\n  mapping(address => uint) public winningsBalance; //map addresses to their winnings balance\n  address[] public eventResults; //track winners of each event\n  uint public unclaimedValue; //total unclaimed value in the contract (available only to winners)\n  uint public currentEventValue; //value of current meetup\n  address private owner;\n\n  modifier onlyOwner {\n    require(msg.sender == owner);\n    _; // The \"_;\" is replaced by fxn body.\n  }\n\n  function AttendanceData() public {\n    unclaimedValue=0;\n    currentEventValue=0;\n    owner = msg.sender;\n  }\n\n  /*\n    Read functions\n  */\n  function isAttendee(address attendeeAddress) public constant returns(bool isAttendee) {\n    if(attendeeList.length == 0) return false;\n    return (attendeeList[attendees[attendeeAddress].listPointer] == attendeeAddress\n        && attendees[attendeeAddress].lastAttendedEvent == eventId\n      );\n  }\n\n  function hasPastAttendeeRecord(address attendeeAddress) public constant returns(bool isAttendee) {\n    return (attendees[attendeeAddress].lastAttendedEvent != eventId\n              && attendees[attendeeAddress].lastAttendedEvent >= 0);\n  }\n\n//\"0xca35b7d915458ef540ade6068dfe2f44e8fa733c\",\"0x14723a09acff6d2a60dcdf7aa4aff308fddc160c\"\n\n  function hasAlreadyValidated(address attendeeAddress, address validatorAddress) public constant returns(bool hasAlreadyValidated) {\n    /*\n      Check if a particular address has already validated a particular attendee\n        1. Ensure attendee exists\n        2. Grab validator object from attendee struct\n        3.\n    */\n    if(attendees[attendeeAddress].validatorList.length == 0) return false;\n    if(isAttendee(attendeeAddress) == false) return false;\n    return attendees[attendeeAddress].validators[validatorAddress].hasAlreadyValidated;\n  }\n\n  function getAttendeeCount() public constant returns(uint attendeeCount) {\n    return attendeeList.length;\n  }\n\n  function newAttendee(string name) public payable returns(bool success) {\n    /*\n      Adding new attendee:\n        1. Make sure attendee doesn't already exist\n        2. Add AttendeeStruct data to mapping\n        3. Push address onto array\n    */\n    address attendeeAddress = msg.sender;\n    uint amountDonated = msg.value;\n    require (isAttendee(attendeeAddress) == false);\n    require (amountDonated>0);\n    if(hasPastAttendeeRecord(attendeeAddress)){\n      updateAttendee(attendeeAddress, name, amountDonated);\n      attendees[attendeeAddress].listPointer = attendeeList.push(attendeeAddress) - 1;\n      attendees[attendeeAddress].lastAttendedEvent = eventId;\n      attendees[attendeeAddress].totalEventsAttended++;\n      return true;\n    }\n    else{\n      attendees[attendeeAddress].name = name;\n      attendees[attendeeAddress].lastAttendedEvent = eventId;\n      attendees[attendeeAddress].amountDonated = amountDonated;\n      attendees[attendeeAddress].listPointer = attendeeList.push(attendeeAddress) - 1;\n      attendees[attendeeAddress].totalEventsAttended=1;\n      currentEventValue+=amountDonated;\n      unclaimedValue+=amountDonated;\n      return true;\n    }\n  }\n\n  function updateAttendee(address attendeeAddress, string name, uint amountDonated) private returns(bool success) {\n    require (isAttendee(attendeeAddress));\n    attendees[attendeeAddress].name = name;\n    attendees[attendeeAddress].lastAttendedEvent = eventId;\n    attendees[attendeeAddress].amountDonated = amountDonated;\n    currentEventValue+=amountDonated;\n    unclaimedValue+=amountDonated;\n    return true;\n  }\n\n  function updateAttendeeName(address attendeeAddress, string name) public returns(bool success) {\n    require (isAttendee(attendeeAddress));\n    attendees[attendeeAddress].name = name;\n    return true;\n  }\n\n  function validateAttendee(address attendeeAddress) public returns(bool success) {\n    require (attendeeAddress!=msg.sender); //prevent self-confimration\n    require (isAttendee(attendeeAddress)); //Make sure that validatee is an attendee\n    require (isAttendee(msg.sender)); //Make sure that validator is an attendee too\n    require (hasAlreadyValidated(attendeeAddress, msg.sender) == false); // check if already validated before\n    attendees[attendeeAddress].validators[msg.sender].hasAlreadyValidated = true;\n    attendees[attendeeAddress].validators[msg.sender].listPointer = attendees[attendeeAddress].validatorList.push(msg.sender) - 1;\n    return true;\n  }\n\n  function deleteAttendee(address attendeeAddress) public returns(bool success) {\n    require (isAttendee(attendeeAddress));\n    uint rowToDelete = attendees[attendeeAddress].listPointer; // array index of specified address\n    address keyToMove = attendeeList[attendeeList.length-1]; // address at last position\n    attendeeList[rowToDelete] = keyToMove; //set address of deleted index, to address of last index\n    attendees[keyToMove].listPointer = rowToDelete; // update pointer of last\n    attendeeList.length--;\n    return true;\n  }\n\n  function payout() public returns(bool success) {\n    require (attendeeList.length>0);\n    address winner = calculateWinner();\n    winningsBalance[winner] += currentEventValue;\n    currentEventValue = 0;\n    resetAttendance();\n    return true;\n  }\n\n  function resetAttendance() private returns(bool success){\n    //Can only be run by .payOut()\n    attendeeList.length=0;\n    currentEventValue=0;\n    eventId++;\n    return true;\n  }\n\n  function collectWinnings() public returns(bool success){\n    //Can only be run by .payOut()\n    require (winningsBalance[msg.sender] > 0);\n    msg.sender.transfer(winningsBalance[msg.sender]);\n    return true;\n  }\n\n  function calculateWinner() private view returns(address) {\n    /*THIS SECTION NEEDS WORK\n      1. Grab list of validated addresses\n      2. Add ransomized selection algorithm\n    */\n    return attendeeList[0];\n  }\n\n\n}\n",
  "sourcePath": "/home/ryan/Desktop/solidity_practice/contracts/AttendanceData.sol",
  "compiler": {
    "name": "solc",
    "version": "0.4.19+commit.c4cbbb05.Emscripten.clang"
  },
  "schemaVersion": "1.0.1",
  "updatedAt": "2018-02-27T03:01:09.915Z"
}