{
  "contractName": "AttendanceIncentivizer",
  "abi": [
    {
      "constant": true,
      "inputs": [
        {
          "name": "",
          "type": "uint256"
        }
      ],
      "name": "donaterList",
      "outputs": [
        {
          "name": "",
          "type": "address"
        }
      ],
      "payable": false,
      "stateMutability": "view",
      "type": "function"
    },
    {
      "constant": true,
      "inputs": [
        {
          "name": "",
          "type": "address"
        }
      ],
      "name": "donaters",
      "outputs": [
        {
          "name": "",
          "type": "uint256"
        }
      ],
      "payable": false,
      "stateMutability": "view",
      "type": "function"
    },
    {
      "constant": true,
      "inputs": [],
      "name": "owner",
      "outputs": [
        {
          "name": "",
          "type": "address"
        }
      ],
      "payable": false,
      "stateMutability": "view",
      "type": "function"
    },
    {
      "constant": true,
      "inputs": [],
      "name": "winner",
      "outputs": [
        {
          "name": "",
          "type": "address"
        }
      ],
      "payable": false,
      "stateMutability": "view",
      "type": "function"
    },
    {
      "constant": true,
      "inputs": [
        {
          "name": "",
          "type": "address"
        }
      ],
      "name": "validations",
      "outputs": [
        {
          "name": "",
          "type": "uint256"
        }
      ],
      "payable": false,
      "stateMutability": "view",
      "type": "function"
    },
    {
      "inputs": [],
      "payable": true,
      "stateMutability": "payable",
      "type": "constructor"
    },
    {
      "anonymous": false,
      "inputs": [
        {
          "indexed": true,
          "name": "donater",
          "type": "address"
        },
        {
          "indexed": true,
          "name": "amount",
          "type": "uint256"
        }
      ],
      "name": "Donate",
      "type": "event"
    },
    {
      "anonymous": false,
      "inputs": [
        {
          "indexed": true,
          "name": "donater",
          "type": "address"
        },
        {
          "indexed": true,
          "name": "amount",
          "type": "uint256"
        }
      ],
      "name": "Payout",
      "type": "event"
    },
    {
      "anonymous": false,
      "inputs": [
        {
          "indexed": true,
          "name": "validator",
          "type": "address"
        },
        {
          "indexed": true,
          "name": "validatee",
          "type": "address"
        }
      ],
      "name": "Validate",
      "type": "event"
    },
    {
      "constant": false,
      "inputs": [],
      "name": "donate",
      "outputs": [],
      "payable": true,
      "stateMutability": "payable",
      "type": "function"
    },
    {
      "constant": false,
      "inputs": [
        {
          "name": "validatee",
          "type": "address"
        }
      ],
      "name": "validate",
      "outputs": [],
      "payable": false,
      "stateMutability": "nonpayable",
      "type": "function"
    },
    {
      "constant": false,
      "inputs": [],
      "name": "payout",
      "outputs": [],
      "payable": false,
      "stateMutability": "nonpayable",
      "type": "function"
    },
    {
      "constant": true,
      "inputs": [
        {
          "name": "validatee",
          "type": "address"
        }
      ],
      "name": "checkIfValidated",
      "outputs": [
        {
          "name": "",
          "type": "bool"
        }
      ],
      "payable": false,
      "stateMutability": "view",
      "type": "function"
    },
    {
      "constant": true,
      "inputs": [
        {
          "name": "donater",
          "type": "address"
        }
      ],
      "name": "checkAmountDonated",
      "outputs": [
        {
          "name": "",
          "type": "uint256"
        }
      ],
      "payable": false,
      "stateMutability": "view",
      "type": "function"
    },
    {
      "constant": true,
      "inputs": [],
      "name": "checkContractValue",
      "outputs": [
        {
          "name": "",
          "type": "uint256"
        }
      ],
      "payable": false,
      "stateMutability": "view",
      "type": "function"
    },
    {
      "constant": true,
      "inputs": [],
      "name": "getListOfDonaters",
      "outputs": [
        {
          "name": "",
          "type": "address[]"
        }
      ],
      "payable": false,
      "stateMutability": "view",
      "type": "function"
    }
  ],
  "bytecode": "0x60606040526000600555600060065533600360006101000a81548173ffffffffffffffffffffffffffffffffffffffff021916908373ffffffffffffffffffffffffffffffffffffffff160217905550346000803373ffffffffffffffffffffffffffffffffffffffff1673ffffffffffffffffffffffffffffffffffffffff1681526020019081526020016000206000828254019250508190555034600560008282540192505081905550600280548060010182816100bf9190610113565b9160005260206000209001600033909190916101000a81548173ffffffffffffffffffffffffffffffffffffffff021916908373ffffffffffffffffffffffffffffffffffffffff16021790555050610164565b81548183558181151161013a57818360005260206000209182019101610139919061013f565b5b505050565b61016191905b8082111561015d576000816000905550600101610145565b5090565b90565b610be2806101736000396000f3006060604052600436106100ba576000357c0100000000000000000000000000000000000000000000000000000000900463ffffffff168063207c64fb146100bf57806325d61ccc146100f857806349dca1941461014957806363bd1d4a146101b357806367789814146101c8578063697a6a7c1461022b5780637f984fd2146102785780638da5cb5b146102c5578063dfbf53ae1461031a578063ed88c68e1461036f578063f715534514610379578063f9a96071146103c6575b600080fd5b34156100ca57600080fd5b6100f6600480803573ffffffffffffffffffffffffffffffffffffffff169060200190919050506103ef565b005b341561010357600080fd5b61012f600480803573ffffffffffffffffffffffffffffffffffffffff1690602001909190505061056e565b604051808215151515815260200191505060405180910390f35b341561015457600080fd5b61015c6105b9565b6040518080602001828103825283818151815260200191508051906020019060200280838360005b8381101561019f578082015181840152602081019050610184565b505050509050019250505060405180910390f35b34156101be57600080fd5b6101c661064d565b005b34156101d357600080fd5b6101e960048080359060200190919050506108b4565b604051808273ffffffffffffffffffffffffffffffffffffffff1673ffffffffffffffffffffffffffffffffffffffff16815260200191505060405180910390f35b341561023657600080fd5b610262600480803573ffffffffffffffffffffffffffffffffffffffff169060200190919050506108f3565b6040518082815260200191505060405180910390f35b341561028357600080fd5b6102af600480803573ffffffffffffffffffffffffffffffffffffffff1690602001909190505061090b565b6040518082815260200191505060405180910390f35b34156102d057600080fd5b6102d8610953565b604051808273ffffffffffffffffffffffffffffffffffffffff1673ffffffffffffffffffffffffffffffffffffffff16815260200191505060405180910390f35b341561032557600080fd5b61032d610979565b604051808273ffffffffffffffffffffffffffffffffffffffff1673ffffffffffffffffffffffffffffffffffffffff16815260200191505060405180910390f35b61037761099f565b005b341561038457600080fd5b6103b0600480803573ffffffffffffffffffffffffffffffffffffffff16906020019091905050610aec565b6040518082815260200191505060405180910390f35b34156103d157600080fd5b6103d9610b04565b6040518082815260200191505060405180910390f35b3373ffffffffffffffffffffffffffffffffffffffff168173ffffffffffffffffffffffffffffffffffffffff161415151561042a57600080fd5b60008060003373ffffffffffffffffffffffffffffffffffffffff1673ffffffffffffffffffffffffffffffffffffffff1681526020019081526020016000205411151561047757600080fd5b60008060008373ffffffffffffffffffffffffffffffffffffffff1673ffffffffffffffffffffffffffffffffffffffff168152602001908152602001600020541115156104c457600080fd5b60018060008373ffffffffffffffffffffffffffffffffffffffff1673ffffffffffffffffffffffffffffffffffffffff168152602001908152602001600020600082825401925050819055508073ffffffffffffffffffffffffffffffffffffffff163373ffffffffffffffffffffffffffffffffffffffff167f2a12816a811291dca6d0f40fa22b53652ab50b4dddb9329904213e4fc123e19060405160405180910390a350565b600080600160008473ffffffffffffffffffffffffffffffffffffffff1673ffffffffffffffffffffffffffffffffffffffff16815260200190815260200160002054119050919050565b6105c1610b51565b600280548060200260200160405190810160405280929190818152602001828054801561064357602002820191906000526020600020905b8160009054906101000a900473ffffffffffffffffffffffffffffffffffffffff1673ffffffffffffffffffffffffffffffffffffffff16815260200190600101908083116105f9575b5050505050905090565b600060028054905011151561066157600080fd5b610669610b0e565b600460006101000a81548173ffffffffffffffffffffffffffffffffffffffff021916908373ffffffffffffffffffffffffffffffffffffffff160217905550600460009054906101000a900473ffffffffffffffffffffffffffffffffffffffff1673ffffffffffffffffffffffffffffffffffffffff166108fc6005549081150290604051600060405180830381858888f19350505050151561070d57600080fd5b600554600460009054906101000a900473ffffffffffffffffffffffffffffffffffffffff1673ffffffffffffffffffffffffffffffffffffffff167f5afeca38b2064c23a692c4cf353015d80ab3ecc417b4f893f372690c11fbd9a660405160405180910390a36000600460006101000a81548173ffffffffffffffffffffffffffffffffffffffff021916908373ffffffffffffffffffffffffffffffffffffffff16021790555060006005819055506001600280549050036006819055505b60006006541215156108b257600080600060026006548154811015156107f157fe5b906000526020600020900160009054906101000a900473ffffffffffffffffffffffffffffffffffffffff1673ffffffffffffffffffffffffffffffffffffffff1673ffffffffffffffffffffffffffffffffffffffff16815260200190815260200160002081905550600260065481548110151561086c57fe5b906000526020600020900160006101000a81549073ffffffffffffffffffffffffffffffffffffffff0219169055600660008154809291906001900391905055506107cf565b565b6002818154811015156108c357fe5b90600052602060002090016000915054906101000a900473ffffffffffffffffffffffffffffffffffffffff1681565b60006020528060005260406000206000915090505481565b60008060008373ffffffffffffffffffffffffffffffffffffffff1673ffffffffffffffffffffffffffffffffffffffff168152602001908152602001600020549050919050565b600360009054906101000a900473ffffffffffffffffffffffffffffffffffffffff1681565b600460009054906101000a900473ffffffffffffffffffffffffffffffffffffffff1681565b60008060003373ffffffffffffffffffffffffffffffffffffffff1673ffffffffffffffffffffffffffffffffffffffff168152602001908152602001600020541415610a4a57600280548060010182816109fa9190610b65565b9160005260206000209001600033909190916101000a81548173ffffffffffffffffffffffffffffffffffffffff021916908373ffffffffffffffffffffffffffffffffffffffff160217905550505b34600560008282540192505081905550346000803373ffffffffffffffffffffffffffffffffffffffff1673ffffffffffffffffffffffffffffffffffffffff16815260200190815260200160002060008282540192505081905550343373ffffffffffffffffffffffffffffffffffffffff167f0553260a2e46b0577270d8992db02d30856ca880144c72d6e9503760946aef1360405160405180910390a3565b60016020528060005260406000206000915090505481565b6000600554905090565b600060026000815481101515610b2057fe5b906000526020600020900160009054906101000a900473ffffffffffffffffffffffffffffffffffffffff16905090565b602060405190810160405280600081525090565b815481835581811511610b8c57818360005260206000209182019101610b8b9190610b91565b5b505050565b610bb391905b80821115610baf576000816000905550600101610b97565b5090565b905600a165627a7a72305820aa0b92a8c4e581c14000a80672efeee684ceea1593e2344c4736b8333f4943e50029",
  "source": "pragma solidity ^0.4.19;\n\ncontract AttendanceIncentivizer {\n  event Donate(address indexed donater, uint indexed amount);\n  event Payout(address indexed donater, uint indexed amount);\n  event Validate(address indexed validator, address indexed validatee);\n\n  mapping (address => uint) public donaters;\n  mapping (address => uint) public validations;\n  address[] public donaterList;\n  address public owner;\n  address public winner;\n  uint constant minimumDonation = 1;\n  uint totalContractValue = 0;\n  int256 i=0;\n\n  function AttendanceIncentivizer() public payable {\n    owner = msg.sender;\n    donaters[msg.sender] += msg.value;\n    totalContractValue += msg.value;\n    donaterList.push(msg.sender);\n  }\n\n  function donate() public payable {\n    //require(msg.value >= minimumDonation);\n    if(donaters[msg.sender]==0){\n      donaterList.push(msg.sender); //If address has not donated before, add them to bytearray\n    }\n    totalContractValue += msg.value; //increase contract value\n    donaters[msg.sender] += msg.value; //add to value associated with address\n    Donate(msg.sender, msg.value); //Event\n\n  }\n\n  function validate(address validatee) public {\n    require (validatee != msg.sender); //Require validator is not same as validatee\n    require (donaters[msg.sender] > 0); //Require validator has donated\n    require (donaters[validatee] > 0); //Require that validatee has dontated\n    validations[validatee] += 1;\n    Validate(msg.sender, validatee); //Log event\n  }\n\n  function payout() public{\n    require (donaterList.length>0);\n    winner = calculateWinner();\n    winner.transfer(totalContractValue);\n    Payout(winner, totalContractValue);\n    winner = address(0); //Clear out address of calculateWinner\n    totalContractValue = 0; //clear out total _value\n    i = int(donaterList.length)-1;\n    while(i>=0){\n        donaters[donaterList[uint(i)]]=0;\n        delete donaterList[uint(i)];\n        i--;\n    }\n  }\n\n  function calculateWinner() private view returns(address) {\n    /*THIS SECTION NEEDS WORK*/\n    return donaterList[0];\n  }\n\n  function checkIfValidated(address validatee) public view returns (bool){\n    return validations[validatee] > 0;\n  }\n\n  function checkAmountDonated(address donater) public view returns (uint) {\n    return donaters[donater];\n  }\n\n  function checkContractValue() public view returns (uint) {\n    return totalContractValue;\n  }\n\n  function getListOfDonaters() public view returns (address[]) {\n    return donaterList;\n  }\n\n}\n",
  "sourcePath": "/home/ryan/Desktop/solidity_practice/contracts/AttendanceIncentivizer.sol",
  "compiler": {
    "name": "solc",
    "version": "0.4.19+commit.c4cbbb05.Emscripten.clang"
  },
  "schemaVersion": "1.0.1",
  "updatedAt": "2018-02-17T17:29:14.085Z"
}