{
  "contractName": "Caller",
  "abi": [
    {
      "constant": false,
      "inputs": [
        {
          "name": "addr",
          "type": "address"
        }
      ],
      "name": "someAction",
      "outputs": [
        {
          "name": "",
          "type": "uint256"
        }
      ],
      "payable": false,
      "stateMutability": "nonpayable",
      "type": "function"
    },
    {
      "constant": false,
      "inputs": [
        {
          "name": "addr",
          "type": "address"
        },
        {
          "name": "number",
          "type": "uint256"
        }
      ],
      "name": "storeAction",
      "outputs": [
        {
          "name": "",
          "type": "uint256"
        }
      ],
      "payable": false,
      "stateMutability": "nonpayable",
      "type": "function"
    },
    {
      "constant": false,
      "inputs": [
        {
          "name": "addr",
          "type": "address"
        }
      ],
      "name": "someUnsafeAction",
      "outputs": [],
      "payable": false,
      "stateMutability": "nonpayable",
      "type": "function"
    }
  ],
  "bytecode": "0x6060604052341561000f57600080fd5b6103e18061001e6000396000f300606060405260043610610057576000357c0100000000000000000000000000000000000000000000000000000000900463ffffffff168063610b07971461005c578063748fa599146100b2578063fba9cea9146100eb575b600080fd5b341561006757600080fd5b61009c600480803573ffffffffffffffffffffffffffffffffffffffff16906020019091908035906020019091905050610138565b6040518082815260200191505060405180910390f35b34156100bd57600080fd5b6100e9600480803573ffffffffffffffffffffffffffffffffffffffff16906020019091905050610250565b005b34156100f657600080fd5b610122600480803573ffffffffffffffffffffffffffffffffffffffff16906020019091905050610314565b6040518082815260200191505060405180910390f35b6000808390508073ffffffffffffffffffffffffffffffffffffffff16637221a26a846040518263ffffffff167c010000000000000000000000000000000000000000000000000000000002815260040180828152602001915050600060405180830381600087803b15156101ac57600080fd5b6102c65a03f115156101bd57600080fd5b5050508073ffffffffffffffffffffffffffffffffffffffff166319eb4a906000604051602001526040518163ffffffff167c0100000000000000000000000000000000000000000000000000000000028152600401602060405180830381600087803b151561022c57600080fd5b6102c65a03f1151561023d57600080fd5b5050506040518051905091505092915050565b8073ffffffffffffffffffffffffffffffffffffffff1660405180807f73746f726556616c75652875696e743235362900000000000000000000000000815250601301905060405180910390207c0100000000000000000000000000000000000000000000000000000000900460646040518263ffffffff167c0100000000000000000000000000000000000000000000000000000000028152600401808260ff16815260200191505060006040518083038160008761646e5a03f1925050505050565b6000808290508073ffffffffffffffffffffffffffffffffffffffff16630ff4c91660646000604051602001526040518263ffffffff167c010000000000000000000000000000000000000000000000000000000002815260040180828152602001915050602060405180830381600087803b151561039257600080fd5b6102c65a03f115156103a357600080fd5b505050604051805190509150509190505600a165627a7a723058206fd84dbabaeb41d066e627615dc3150517320a957649eb0f0aedc3ea5f9d65b30029",
  "source": "pragma solidity ^0.4.19;\n\nimport \"./CalleeInterface.sol\";\n\ncontract Caller {\n    function someAction(address addr) returns(uint) {\n        CalleeInterface c = CalleeInterface(addr);\n        return c.getValue(100);\n    }\n\n    function storeAction(address addr, uint number) returns(uint) {\n        CalleeInterface c = CalleeInterface(addr);\n        c.storeValue(number);\n        return c.getValues();\n    }\n\n    function someUnsafeAction(address addr) {\n        addr.call(bytes4(keccak256(\"storeValue(uint256)\")), 100);\n    }\n}\n",
  "sourcePath": "/home/ryan/Desktop/solidity_practice/contracts/Caller.sol",
  "compiler": {
    "name": "solc",
    "version": "0.4.19+commit.c4cbbb05.Emscripten.clang"
  },
  "schemaVersion": "1.0.1",
  "updatedAt": "2018-03-01T03:03:01.046Z"
}