{
  "contractName": "Callee",
  "abi": [
    {
      "constant": true,
      "inputs": [
        {
          "name": "",
          "type": "uint256"
        }
      ],
      "name": "values",
      "outputs": [
        {
          "name": "",
          "type": "uint256"
        }
      ],
      "payable": false,
      "stateMutability": "view",
      "type": "function"
    },
    {
      "constant": false,
      "inputs": [
        {
          "name": "initial",
          "type": "uint256"
        }
      ],
      "name": "getValue",
      "outputs": [
        {
          "name": "",
          "type": "uint256"
        }
      ],
      "payable": false,
      "stateMutability": "nonpayable",
      "type": "function"
    },
    {
      "constant": false,
      "inputs": [
        {
          "name": "value",
          "type": "uint256"
        }
      ],
      "name": "storeValue",
      "outputs": [],
      "payable": false,
      "stateMutability": "nonpayable",
      "type": "function"
    },
    {
      "constant": false,
      "inputs": [],
      "name": "getValues",
      "outputs": [
        {
          "name": "",
          "type": "uint256"
        }
      ],
      "payable": false,
      "stateMutability": "nonpayable",
      "type": "function"
    }
  ],
  "bytecode": "0x6060604052341561000f57600080fd5b6102078061001e6000396000f300606060405260043610610062576000357c0100000000000000000000000000000000000000000000000000000000900463ffffffff1680630ff4c9161461006757806319eb4a901461009e5780635e383d21146100c75780637221a26a146100fe575b600080fd5b341561007257600080fd5b6100886004808035906020019091905050610121565b6040518082815260200191505060405180910390f35b34156100a957600080fd5b6100b161012e565b6040518082815260200191505060405180910390f35b34156100d257600080fd5b6100e8600480803590602001909190505061013a565b6040518082815260200191505060405180910390f35b341561010957600080fd5b61011f600480803590602001909190505061015e565b005b6000609682019050919050565b60008080549050905090565b60008181548110151561014957fe5b90600052602060002090016000915090505481565b60008054806001018281610172919061018a565b91600052602060002090016000839091909150555050565b8154818355818115116101b1578183600052602060002091820191016101b091906101b6565b5b505050565b6101d891905b808211156101d45760008160009055506001016101bc565b5090565b905600a165627a7a723058205d05d9b6d1b9ab1ad32660ccd9c5f5167d3696b9a337c1b06c817b64406615d00029",
  "source": "pragma solidity ^0.4.19;\n\n//import \"./CalleeInterface.sol\";\n\ncontract Callee {\n    uint[] public values;\n\n    function getValue(uint initial) returns(uint) {\n        return initial + 150;\n    }\n    function storeValue(uint value) {\n        values.push(value);\n    }\n    function getValues() returns(uint) {\n        return values.length;\n    }\n}\n",
  "sourcePath": "/home/ryan/Desktop/solidity_practice/contracts/Callee.sol",
  "compiler": {
    "name": "solc",
    "version": "0.4.19+commit.c4cbbb05.Emscripten.clang"
  },
  "schemaVersion": "1.0.1",
  "updatedAt": "2018-02-17T22:22:10.932Z"
}