{
  "contractName": "HodlEthereum",
  "abi": [
    {
      "constant": true,
      "inputs": [
        {
          "name": "",
          "type": "address"
        }
      ],
      "name": "hodlers",
      "outputs": [
        {
          "name": "",
          "type": "uint256"
        }
      ],
      "payable": false,
      "stateMutability": "view",
      "type": "function"
    },
    {
      "anonymous": false,
      "inputs": [
        {
          "indexed": true,
          "name": "hodler",
          "type": "address"
        },
        {
          "indexed": true,
          "name": "amount",
          "type": "uint256"
        }
      ],
      "name": "Hodl",
      "type": "event"
    },
    {
      "anonymous": false,
      "inputs": [
        {
          "indexed": true,
          "name": "hodler",
          "type": "address"
        },
        {
          "indexed": true,
          "name": "amount",
          "type": "uint256"
        }
      ],
      "name": "Release",
      "type": "event"
    },
    {
      "constant": false,
      "inputs": [],
      "name": "deposit",
      "outputs": [],
      "payable": true,
      "stateMutability": "payable",
      "type": "function"
    },
    {
      "constant": false,
      "inputs": [],
      "name": "release",
      "outputs": [],
      "payable": false,
      "stateMutability": "nonpayable",
      "type": "function"
    },
    {
      "constant": true,
      "inputs": [
        {
          "name": "hodler",
          "type": "address"
        }
      ],
      "name": "getBalance",
      "outputs": [
        {
          "name": "",
          "type": "uint256"
        }
      ],
      "payable": false,
      "stateMutability": "view",
      "type": "function"
    }
  ],
  "bytecode": "0x6060604052341561000f57600080fd5b6103ac8061001e6000396000f300606060405260043610610062576000357c0100000000000000000000000000000000000000000000000000000000900463ffffffff1680634a3f17e71461006757806386d1a69f146100b4578063d0e30db0146100c9578063f8b2cb4f146100d3575b600080fd5b341561007257600080fd5b61009e600480803573ffffffffffffffffffffffffffffffffffffffff16906020019091905050610120565b6040518082815260200191505060405180910390f35b34156100bf57600080fd5b6100c7610138565b005b6100d16102a1565b005b34156100de57600080fd5b61010a600480803573ffffffffffffffffffffffffffffffffffffffff16906020019091905050610333565b6040518082815260200191505060405180910390f35b60006020528060005260406000206000915090505481565b60006008600a1015801561018a575060008060003373ffffffffffffffffffffffffffffffffffffffff1673ffffffffffffffffffffffffffffffffffffffff16815260200190815260200160002054115b151561019557600080fd5b6000803373ffffffffffffffffffffffffffffffffffffffff1673ffffffffffffffffffffffffffffffffffffffff16815260200190815260200160002054905060008060003373ffffffffffffffffffffffffffffffffffffffff1673ffffffffffffffffffffffffffffffffffffffff168152602001908152602001600020819055503373ffffffffffffffffffffffffffffffffffffffff166108fc829081150290604051600060405180830381858888f19350505050151561025a57600080fd5b803373ffffffffffffffffffffffffffffffffffffffff167ff6334794522b9db534a812aaae1af828a2e96aac68473b58e36d7d0bfd67477b60405160405180910390a350565b346000803373ffffffffffffffffffffffffffffffffffffffff1673ffffffffffffffffffffffffffffffffffffffff16815260200190815260200160002060008282540192505081905550343373ffffffffffffffffffffffffffffffffffffffff167f115522125a340a348d82c36b243d9dcbb357931a24824ddbe1d13179155e309160405160405180910390a3565b6000806000808473ffffffffffffffffffffffffffffffffffffffff1673ffffffffffffffffffffffffffffffffffffffff168152602001908152602001600020549050809150509190505600a165627a7a723058204348eb072de11e3ee76246704db26e22902aff782f306cdf6cde1a9bbe506b830029",
  "source": "pragma solidity ^0.4.11;\n\ncontract HodlEthereum {\n    event Hodl(address indexed hodler, uint indexed amount);\n    event Release(address indexed hodler, uint indexed amount);\n    mapping (address => uint) public hodlers;\n    uint constant targetTime = 8; // block num\n    uint constant targetBlock = 8;\n\n    function deposit() public payable {\n        hodlers[msg.sender] += msg.value;\n        Hodl(msg.sender, msg.value);\n    }\n\n    function release() public{\n        require (10 >= targetBlock && hodlers[msg.sender] > 0);\n        uint value = hodlers[msg.sender];\n        hodlers[msg.sender] = 0;\n        msg.sender.transfer(value);\n        Release(msg.sender, value);\n    }\n\n    function getBalance(address hodler) public view returns (uint){\n      uint balance = hodlers[hodler];\n      return balance;\n    }\n}\n",
  "sourcePath": "/home/ryan/Desktop/solidity_practice/contracts/HodlEthereum.sol",
  "compiler": {
    "name": "solc",
    "version": "0.4.19+commit.c4cbbb05.Emscripten.clang"
  },
  "schemaVersion": "1.0.1",
  "updatedAt": "2018-02-07T15:39:35.058Z"
}